:200000000202020202020202020E0202020202020202020202020202020202020202020294
:20002000020202020202020202020202020202020202020202020202020202020202020280
:20004000020202020202020202020202020202020202020202020202020202020202020260
:20006000020202020202020202020202020202020202020202020202020202020202020240
:20008000020202020202020202020202020202020202020202020202020202020202020220
:2000A00002020202020202020202020202020202020202020202020202020E0202020802EE
:2000C0000202020202020202020202020202020202020202020202020202020202020202E0
:2000E00002020202020202020202020202020202020202020202020202020E0202020302B3
:00000001FF
